S12300000A4861732073656C656363696F6E61646F206A7565676F200A00496E74656E74D7
S12300206F733A20005461626C65726F206E3A2000000000000000585858585858585858B7
S123004058585858585858004142434445464748494A4B4C4D4E4F5000CEF00010CEFF0011
S1230060BD01F08630B70033C631F700348E0048108E0037C630F7025BBD02FEBD0087BD59
S12300800318BD025C20ED8E001ABD02F08E0033BD02F0BD03058E0025BD02F08E0034BDAC
S10B00A002F0BD0305BD0305D8
S105FFFE0059A4
S12300A8312E2D204A756761720A322E2D20496E737472756363696F6E65730A332E2D20B7
S12300C853616C69720A000A496E737472756363696F6E65733A204C6173206361727461F7
S12300E873206170617265636572616E20626F6361206162616A6F2E0A53652073656C65C4
S12301086363696F6E6120756E612066696C61207920756E6120636F6C756D6E612C6C6141
S1230128206361727461207365206461206C61207675656C746120792073652072657069AC
S12301487465206C612073656C656363696F6E2C207369206C617320646F7320736F6E207A
S1230168696775616C65732071756564616E206461646173206C61207675656C74612E0AF8
S123018847616E6173206375616E646F20746F646173206C6173206361727461732065739E
S12301A874616E206461646173206C61207675656C74612E0A0A000A4861732073656C6504
S12301C86363696F6E61646F20756E61206F7063696F6E20696E636F727265637461202835
S12301E8312D33292E200A008E00A8BD02F0F6FF02C1311027FE64C13210270012C1332723
S12302081B2600BD02FE8E01BFBD02F016FFD9BD02FE8E00CFBD02F016FFCD394FB7FF01FF
S123022853656C656363696F6E65206C612066696C61203A200053656C656363696F6E659B
S1230248206C6120636F6C756D6E61203A20000000000000F6025BBD02AFBD02C8BD030C08
S1230268C1302705C131272039F6025B5CF7025BB602EFB702598E0048A686B702578E0087
S123028837E686F7FF0020CCF6025B5CF7025BB602EFB7025A8E0048A686B702588E003738
S12302A8E686F7FF0020ADBD03058E0228BD02F0B6FF02813125F0813422EC4AB70031392B
S12302C8BD03058E023EBD02F0B6FF02813125F0813422EC4AB70032391B5B324A201B5B9B
S12302E8313B3148000A00003402A6802705B7FF0020F73502398E02E1BD02F0398E02ED68
S1230308BD02F0398631C6043DC30032FD02EF39C630F70035F60035C134270D5CF7003511
S11A0328A6A02712B7FF0020ECC630F70035BD0305BD02F020DF39AB
S9030000FC
